{
  "contractName": "ImageUpload",
  "abi": [
    {
      "inputs": [],
      "payable": false,
      "stateMutability": "nonpayable",
      "type": "constructor"
    },
    {
      "anonymous": false,
      "inputs": [
        {
          "indexed": true,
          "name": "_from",
          "type": "address"
        },
        {
          "indexed": false,
          "name": "_ipfs",
          "type": "string"
        },
        {
          "indexed": false,
          "name": "_tag",
          "type": "string"
        },
        {
          "indexed": false,
          "name": "_id",
          "type": "uint256"
        }
      ],
      "name": "CreateImage",
      "type": "event"
    },
    {
      "constant": false,
      "inputs": [
        {
          "name": "_ipfs",
          "type": "string"
        },
        {
          "name": "_tag",
          "type": "string"
        }
      ],
      "name": "createImage",
      "outputs": [],
      "payable": false,
      "stateMutability": "nonpayable",
      "type": "function"
    },
    {
      "constant": true,
      "inputs": [
        {
          "name": "_img_id",
          "type": "uint256"
        }
      ],
      "name": "getImage",
      "outputs": [
        {
          "name": "",
          "type": "string"
        },
        {
          "name": "",
          "type": "string"
        },
        {
          "name": "",
          "type": "uint256"
        }
      ],
      "payable": false,
      "stateMutability": "view",
      "type": "function"
    },
    {
      "constant": true,
      "inputs": [],
      "name": "getImages",
      "outputs": [
        {
          "name": "",
          "type": "uint256[]"
        }
      ],
      "payable": false,
      "stateMutability": "view",
      "type": "function"
    }
  ],
  "bytecode": "0x608060405234801561001057600080fd5b50336000806101000a81548173ffffffffffffffffffffffffffffffffffffffff021916908373ffffffffffffffffffffffffffffffffffffffff16021790555060006001819055506109f5806100686000396000f300608060405260043610610057576000357c0100000000000000000000000000000000000000000000000000000000900463ffffffff168063114983341461005c5780632607aafa146100c8578063a510f9d9146101e1575b600080fd5b34801561006857600080fd5b50610071610290565b6040518080602001828103825283818151815260200191508051906020019060200280838360005b838110156100b4578082015181840152602081019050610099565b505050509050019250505060405180910390f35b3480156100d457600080fd5b506100f36004803603810190808035906020019092919050505061032e565b604051808060200180602001848152602001838103835286818151815260200191508051906020019080838360005b8381101561013d578082015181840152602081019050610122565b50505050905090810190601f16801561016a5780820380516001836020036101000a031916815260200191505b50838103825285818151815260200191508051906020019080838360005b838110156101a3578082015181840152602081019050610188565b50505050905090810190601f1680156101d05780820380516001836020036101000a031916815260200191505b509550505050505060405180910390f35b3480156101ed57600080fd5b5061028e600480360381019080803590602001908201803590602001908080601f0160208091040260200160405190810160405280939291908181526020018383808284378201915050505050509192919290803590602001908201803590602001908080601f01602080910402602001604051908101604052809392919081815260200183838082843782019150505050505091929192905050506105a5565b005b60606000339050600460008273ffffffffffffffffffffffffffffffffffffffff1673ffffffffffffffffffffffffffffffffffffffff16815260200190815260200160002060000180548060200260200160405190810160405280929190818152602001828054801561032357602002820191906000526020600020905b81548152602001906001019080831161030f575b505050505091505090565b606080600061033b610902565b600073ffffffffffffffffffffffffffffffffffffffff166002600087815260200190815260200160002060009054906101000a900473ffffffffffffffffffffffffffffffffffffffff1673ffffffffffffffffffffffffffffffffffffffff1614151515610413576040517f08c379a00000000000000000000000000000000000000000000000000000000081526004018080602001828103825260148152602001807f496d61676520646f65736e27742065786973742100000000000000000000000081525060200191505060405180910390fd5b6003600086815260200190815260200160002060606040519081016040529081600082018054600181600116156101000203166002900480601f0160208091040260200160405190810160405280929190818152602001828054600181600116156101000203166002900480156104cb5780601f106104a0576101008083540402835291602001916104cb565b820191906000526020600020905b8154815290600101906020018083116104ae57829003601f168201915b50505050508152602001600182018054600181600116156101000203166002900480601f01602080910402602001604051908101604052809291908181526020018280546001816001161561010002031660029004801561056d5780601f106105425761010080835404028352916020019161056d565b820191906000526020600020905b81548152906001019060200180831161055057829003601f168201915b505050505081526020016002820154815250509050806000015181602001518260400151829250819150935093509350509193909250565b60006105af610902565b600073ffffffffffffffffffffffffffffffffffffffff1660026000600154815260200190815260200160002060009054906101000a900473ffffffffffffffffffffffffffffffffffffffff1673ffffffffffffffffffffffffffffffffffffffff16141515610688576040517f08c379a00000000000000000000000000000000000000000000000000000000081526004018080602001828103825260118152602001807f494420616c72656164792065786973742100000000000000000000000000000081525060200191505060405180910390fd5b600154915060018060008282540192505081905550606060405190810160405280858152602001848152602001428152509050806003600084815260200190815260200160002060008201518160000190805190602001906106eb929190610924565b506020820151816001019080519060200190610708929190610924565b5060408201518160020155905050600460003373ffffffffffffffffffffffffffffffffffffffff1673ffffffffffffffffffffffffffffffffffffffff168152602001908152602001600020600001829080600181540180825580915050906001820390600052602060002001600090919290919091505550336002600084815260200190815260200160002060006101000a81548173ffffffffffffffffffffffffffffffffffffffff021916908373ffffffffffffffffffffffffffffffffffffffff1602179055503373ffffffffffffffffffffffffffffffffffffffff167fd0ebca2e0794b34e643608cff1eb3c4f3c3b0f5b3d6f05a0b83c212ceeda36a7858585604051808060200180602001848152602001838103835286818151815260200191508051906020019080838360005b8381101561085957808201518184015260208101905061083e565b50505050905090810190601f1680156108865780820380516001836020036101000a031916815260200191505b50838103825285818151815260200191508051906020019080838360005b838110156108bf5780820151818401526020810190506108a4565b50505050905090810190601f1680156108ec5780820380516001836020036101000a031916815260200191505b509550505050505060405180910390a250505050565b6060604051908101604052806060815260200160608152602001600081525090565b828054600181600116156101000203166002900490600052602060002090601f016020900481019282601f1061096557805160ff1916838001178555610993565b82800160010185558215610993579182015b82811115610992578251825591602001919060010190610977565b5b5090506109a091906109a4565b5090565b6109c691905b808211156109c25760008160009055506001016109aa565b5090565b905600a165627a7a72305820dc3344541817908716daf4e8b5438ecdecec4a2c9491690ad2a36247d9b409af0029",
  "source": "pragma solidity ^0.4.24;\n\ncontract ImageUpload {\n\n// state variables\n\n    address private _owner;  // the contract creator\n    struct image_info //structure to hold image information\n      {\n        string ipfshash;  //image ipfshash\n        string tag;      // image tag as defined by the user\n        uint256 timestamp;\n      }\n    struct images_owner\n      { //struct used to link the user to all his uploaded images\n        uint256[] ImagesId;\n      }\n    uint256  private _imagesCounter; // variable to track the count of images created\n\n// mapping definitions\n\n    mapping (uint256 => address)      private _ownerof;     // will be used to verify the owner of any giving image id\n    mapping (uint256 => image_info)   private _ImgID;       // this mapping to link each image information to its id\n    mapping (address => images_owner) private _ownerImgIDs; // mapping to link the user address to all his Images Id\n\n// event definitions\n\n    event CreateImage(address indexed _from, string _ipfs,  string _tag, uint256  _id);\n\n    constructor() public {   //smart contract constructor\n        _owner = msg.sender;\n        _imagesCounter = 0;\n    }\n\n// functionalities\n\n    function createImage(string _ipfs, string _tag) public {\n        uint256 _img_id; // image id\n        require(_ownerof[_imagesCounter] == address(0),\"ID already exist!\"); // this to verify this id not used before\n        _img_id = _imagesCounter;   // unique image id\n         _imagesCounter += 1;   // increment  imagecounter for next image upload\n        image_info memory NewImage = image_info(_ipfs, _tag, block.timestamp);  // memory image object created\n        _ImgID[_img_id] = NewImage;   // push new image to blockchain\n        _ownerImgIDs[msg.sender].ImagesId.push(_img_id);  // mapping new imageid to the user uploaded its\n        _ownerof[_img_id] = msg.sender;   // keep track the owner of each individual image uploaded id\n\n        emit CreateImage(msg.sender,_ipfs,_tag,_img_id); // this event to log successful creation\n    }\n\n    function getImage(uint256 _img_id) public view returns (string, string, uint256) { // get specific image information\n       require(_ownerof[_img_id] != address(0),\"Image doesn't exist!\");\n       image_info memory Image_info;\n       Image_info = _ImgID[_img_id];\n       return (Image_info.ipfshash, Image_info.tag, Image_info.timestamp);\n    }\n\n    function getImages() public view  returns (uint256[]) { // get all images ids for the msg sender\n       address _user;\n       _user = msg.sender;\n       return _ownerImgIDs[_user].ImagesId;\n    }\n}\n",
  "sourcePath": "/Users/babudahal/Documents/proof-of-existence/contracts/ImageUpload.sol",
  "compiler": {
    "name": "solc",
    "version": "0.4.24+commit.e67f0147.Emscripten.clang"
  },
  "schemaVersion": "2.0.1",
  "updatedAt": "2019-01-11T17:23:49.530Z"
}